{
  "_format": "hh-sol-artifact-1",
  "contractName": "NFTMarketplace",
  "sourceName": "contracts/NFTMarketplace.sol",
  "abi": [
    {
      "inputs": [],
      "stateMutability": "nonpayable",
      "type": "constructor"
    },
    {
      "anonymous": false,
      "inputs": [
        {
          "indexed": true,
          "internalType": "address",
          "name": "owner",
          "type": "address"
        },
        {
          "indexed": true,
          "internalType": "address",
          "name": "approved",
          "type": "address"
        },
        {
          "indexed": true,
          "internalType": "uint256",
          "name": "tokenId",
          "type": "uint256"
        }
      ],
      "name": "Approval",
      "type": "event"
    },
    {
      "anonymous": false,
      "inputs": [
        {
          "indexed": true,
          "internalType": "address",
          "name": "owner",
          "type": "address"
        },
        {
          "indexed": true,
          "internalType": "address",
          "name": "operator",
          "type": "address"
        },
        {
          "indexed": false,
          "internalType": "bool",
          "name": "approved",
          "type": "bool"
        }
      ],
      "name": "ApprovalForAll",
      "type": "event"
    },
    {
      "anonymous": false,
      "inputs": [
        {
          "indexed": true,
          "internalType": "uint256",
          "name": "tokenId",
          "type": "uint256"
        },
        {
          "indexed": false,
          "internalType": "address",
          "name": "seller",
          "type": "address"
        },
        {
          "indexed": false,
          "internalType": "address",
          "name": "owner",
          "type": "address"
        },
        {
          "indexed": false,
          "internalType": "uint256",
          "name": "price",
          "type": "uint256"
        },
        {
          "indexed": false,
          "internalType": "bool",
          "name": "sold",
          "type": "bool"
        }
      ],
      "name": "MarketItemCreated",
      "type": "event"
    },
    {
      "anonymous": false,
      "inputs": [
        {
          "indexed": true,
          "internalType": "address",
          "name": "from",
          "type": "address"
        },
        {
          "indexed": true,
          "internalType": "address",
          "name": "to",
          "type": "address"
        },
        {
          "indexed": true,
          "internalType": "uint256",
          "name": "tokenId",
          "type": "uint256"
        }
      ],
      "name": "Transfer",
      "type": "event"
    },
    {
      "inputs": [
        {
          "internalType": "address",
          "name": "to",
          "type": "address"
        },
        {
          "internalType": "uint256",
          "name": "tokenId",
          "type": "uint256"
        }
      ],
      "name": "approve",
      "outputs": [],
      "stateMutability": "nonpayable",
      "type": "function"
    },
    {
      "inputs": [
        {
          "internalType": "address",
          "name": "owner",
          "type": "address"
        }
      ],
      "name": "balanceOf",
      "outputs": [
        {
          "internalType": "uint256",
          "name": "",
          "type": "uint256"
        }
      ],
      "stateMutability": "view",
      "type": "function"
    },
    {
      "inputs": [
        {
          "internalType": "uint256",
          "name": "tokenId",
          "type": "uint256"
        }
      ],
      "name": "createMarketSale",
      "outputs": [],
      "stateMutability": "payable",
      "type": "function"
    },
    {
      "inputs": [
        {
          "internalType": "string",
          "name": "tokenURI",
          "type": "string"
        },
        {
          "internalType": "uint256",
          "name": "price",
          "type": "uint256"
        }
      ],
      "name": "createToken",
      "outputs": [
        {
          "internalType": "uint256",
          "name": "",
          "type": "uint256"
        }
      ],
      "stateMutability": "payable",
      "type": "function"
    },
    {
      "inputs": [],
      "name": "fetchItemsListed",
      "outputs": [
        {
          "components": [
            {
              "internalType": "uint256",
              "name": "tokenId",
              "type": "uint256"
            },
            {
              "internalType": "address payable",
              "name": "seller",
              "type": "address"
            },
            {
              "internalType": "address payable",
              "name": "owner",
              "type": "address"
            },
            {
              "internalType": "uint256",
              "name": "price",
              "type": "uint256"
            },
            {
              "internalType": "bool",
              "name": "sold",
              "type": "bool"
            }
          ],
          "internalType": "struct NFTMarketplace.MarketItem[]",
          "name": "",
          "type": "tuple[]"
        }
      ],
      "stateMutability": "view",
      "type": "function"
    },
    {
      "inputs": [],
      "name": "fetchMarketItems",
      "outputs": [
        {
          "components": [
            {
              "internalType": "uint256",
              "name": "tokenId",
              "type": "uint256"
            },
            {
              "internalType": "address payable",
              "name": "seller",
              "type": "address"
            },
            {
              "internalType": "address payable",
              "name": "owner",
              "type": "address"
            },
            {
              "internalType": "uint256",
              "name": "price",
              "type": "uint256"
            },
            {
              "internalType": "bool",
              "name": "sold",
              "type": "bool"
            }
          ],
          "internalType": "struct NFTMarketplace.MarketItem[]",
          "name": "",
          "type": "tuple[]"
        }
      ],
      "stateMutability": "view",
      "type": "function"
    },
    {
      "inputs": [],
      "name": "fetchMyItems",
      "outputs": [
        {
          "components": [
            {
              "internalType": "uint256",
              "name": "tokenId",
              "type": "uint256"
            },
            {
              "internalType": "address payable",
              "name": "seller",
              "type": "address"
            },
            {
              "internalType": "address payable",
              "name": "owner",
              "type": "address"
            },
            {
              "internalType": "uint256",
              "name": "price",
              "type": "uint256"
            },
            {
              "internalType": "bool",
              "name": "sold",
              "type": "bool"
            }
          ],
          "internalType": "struct NFTMarketplace.MarketItem[]",
          "name": "",
          "type": "tuple[]"
        }
      ],
      "stateMutability": "view",
      "type": "function"
    },
    {
      "inputs": [
        {
          "internalType": "uint256",
          "name": "tokenId",
          "type": "uint256"
        }
      ],
      "name": "getApproved",
      "outputs": [
        {
          "internalType": "address",
          "name": "",
          "type": "address"
        }
      ],
      "stateMutability": "view",
      "type": "function"
    },
    {
      "inputs": [],
      "name": "getListingPrice",
      "outputs": [
        {
          "internalType": "uint256",
          "name": "",
          "type": "uint256"
        }
      ],
      "stateMutability": "view",
      "type": "function"
    },
    {
      "inputs": [],
      "name": "getOwnerCommissionPercentage",
      "outputs": [
        {
          "internalType": "uint256",
          "name": "",
          "type": "uint256"
        }
      ],
      "stateMutability": "view",
      "type": "function"
    },
    {
      "inputs": [
        {
          "internalType": "address",
          "name": "owner",
          "type": "address"
        },
        {
          "internalType": "address",
          "name": "operator",
          "type": "address"
        }
      ],
      "name": "isApprovedForAll",
      "outputs": [
        {
          "internalType": "bool",
          "name": "",
          "type": "bool"
        }
      ],
      "stateMutability": "view",
      "type": "function"
    },
    {
      "inputs": [],
      "name": "name",
      "outputs": [
        {
          "internalType": "string",
          "name": "",
          "type": "string"
        }
      ],
      "stateMutability": "view",
      "type": "function"
    },
    {
      "inputs": [
        {
          "internalType": "uint256",
          "name": "tokenId",
          "type": "uint256"
        }
      ],
      "name": "ownerOf",
      "outputs": [
        {
          "internalType": "address",
          "name": "",
          "type": "address"
        }
      ],
      "stateMutability": "view",
      "type": "function"
    },
    {
      "inputs": [
        {
          "internalType": "uint256",
          "name": "tokenId",
          "type": "uint256"
        },
        {
          "internalType": "uint256",
          "name": "price",
          "type": "uint256"
        }
      ],
      "name": "resellToken",
      "outputs": [],
      "stateMutability": "payable",
      "type": "function"
    },
    {
      "inputs": [
        {
          "internalType": "address",
          "name": "from",
          "type": "address"
        },
        {
          "internalType": "address",
          "name": "to",
          "type": "address"
        },
        {
          "internalType": "uint256",
          "name": "tokenId",
          "type": "uint256"
        }
      ],
      "name": "safeTransferFrom",
      "outputs": [],
      "stateMutability": "nonpayable",
      "type": "function"
    },
    {
      "inputs": [
        {
          "internalType": "address",
          "name": "from",
          "type": "address"
        },
        {
          "internalType": "address",
          "name": "to",
          "type": "address"
        },
        {
          "internalType": "uint256",
          "name": "tokenId",
          "type": "uint256"
        },
        {
          "internalType": "bytes",
          "name": "data",
          "type": "bytes"
        }
      ],
      "name": "safeTransferFrom",
      "outputs": [],
      "stateMutability": "nonpayable",
      "type": "function"
    },
    {
      "inputs": [
        {
          "internalType": "address",
          "name": "operator",
          "type": "address"
        },
        {
          "internalType": "bool",
          "name": "approved",
          "type": "bool"
        }
      ],
      "name": "setApprovalForAll",
      "outputs": [],
      "stateMutability": "nonpayable",
      "type": "function"
    },
    {
      "inputs": [
        {
          "internalType": "bytes4",
          "name": "interfaceId",
          "type": "bytes4"
        }
      ],
      "name": "supportsInterface",
      "outputs": [
        {
          "internalType": "bool",
          "name": "",
          "type": "bool"
        }
      ],
      "stateMutability": "view",
      "type": "function"
    },
    {
      "inputs": [],
      "name": "symbol",
      "outputs": [
        {
          "internalType": "string",
          "name": "",
          "type": "string"
        }
      ],
      "stateMutability": "view",
      "type": "function"
    },
    {
      "inputs": [
        {
          "internalType": "uint256",
          "name": "tokenId",
          "type": "uint256"
        }
      ],
      "name": "tokenURI",
      "outputs": [
        {
          "internalType": "string",
          "name": "",
          "type": "string"
        }
      ],
      "stateMutability": "view",
      "type": "function"
    },
    {
      "inputs": [
        {
          "internalType": "address",
          "name": "from",
          "type": "address"
        },
        {
          "internalType": "address",
          "name": "to",
          "type": "address"
        },
        {
          "internalType": "uint256",
          "name": "tokenId",
          "type": "uint256"
        }
      ],
      "name": "transferFrom",
      "outputs": [],
      "stateMutability": "nonpayable",
      "type": "function"
    },
    {
      "inputs": [
        {
          "internalType": "uint256",
          "name": "_listingPrice",
          "type": "uint256"
        }
      ],
      "name": "updateListingPrice",
      "outputs": [],
      "stateMutability": "payable",
      "type": "function"
    },
    {
      "inputs": [
        {
          "internalType": "uint256",
          "name": "_ownerCommissionPercentage",
          "type": "uint256"
        }
      ],
      "name": "updateOwnerCommissionPercentage",
      "outputs": [],
      "stateMutability": "payable",
      "type": "function"
    }
  ],
  "bytecode": "0x60806040526000600955600f600a55600a546103e8620000209190620001c8565b600b553480156200003057600080fd5b506040518060400160405280600781526020017f41727462797465000000000000000000000000000000000000000000000000008152506040518060400160405280600381526020017f41525400000000000000000000000000000000000000000000000000000000008152508160009080519060200190620000b592919062000118565b508060019080519060200190620000ce92919062000118565b50505033600c60006101000a81548173ffffffffffffffffffffffffffffffffffffffff021916908373ffffffffffffffffffffffffffffffffffffffff160217905550620002a1565b82805462000126906200020d565b90600052602060002090601f0160209004810192826200014a576000855562000196565b82601f106200016557805160ff191683800117855562000196565b8280016001018555821562000196579182015b828111156200019557825182559160200191906001019062000178565b5b509050620001a59190620001a9565b5090565b5b80821115620001c4576000816000905550600101620001aa565b5090565b6000620001d58262000203565b9150620001e28362000203565b925082821015620001f857620001f762000243565b5b828203905092915050565b6000819050919050565b600060028204905060018216806200022657607f821691505b602082108114156200023d576200023c62000272565b5b50919050565b7f4e487b7100000000000000000000000000000000000000000000000000000000600052601160045260246000fd5b7f4e487b7100000000000000000000000000000000000000000000000000000000600052602260045260246000fd5b6141a680620002b16000396000f3fe6080604052600436106101405760003560e01c80636352211e116100b6578063b88d4fde1161006f578063b88d4fde14610447578063be9af53614610470578063c87b56dd1461048c578063e219fc75146104c9578063e985e9c5146104e5578063f060a4471461052257610140565b80636352211e1461032d57806370a082311461036a57806372b3b620146103a757806395d89b41146103d7578063a22cb46514610402578063ae677aa31461042b57610140565b806312e855851161010857806312e855851461023e57806315c9ae101461026957806323b872dd146102945780633ff7abca146102bd57806342842e0e146102d957806345f8fa801461030257610140565b806301ffc9a71461014557806306fdde0314610182578063081812fc146101ad578063095ea7b3146101ea5780630f08efe014610213575b600080fd5b34801561015157600080fd5b5061016c60048036038101906101679190612f66565b61054d565b6040516101799190613591565b60405180910390f35b34801561018e57600080fd5b5061019761062f565b6040516101a491906135ac565b60405180910390f35b3480156101b957600080fd5b506101d460048036038101906101cf919061300c565b6106c1565b6040516101e191906134c3565b60405180910390f35b3480156101f657600080fd5b50610211600480360381019061020c9190612f2a565b610707565b005b34801561021f57600080fd5b5061022861081f565b604051610235919061356f565b60405180910390f35b34801561024a57600080fd5b50610253610ad4565b60405161026091906137ee565b60405180910390f35b34801561027557600080fd5b5061027e610ade565b60405161028b919061356f565b60405180910390f35b3480156102a057600080fd5b506102bb60048036038101906102b69190612e24565b610e18565b005b6102d760048036038101906102d2919061300c565b610e78565b005b3480156102e557600080fd5b5061030060048036038101906102fb9190612e24565b610f12565b005b34801561030e57600080fd5b50610317610f32565b604051610324919061356f565b60405180910390f35b34801561033957600080fd5b50610354600480360381019061034f919061300c565b61126c565b60405161036191906134c3565b60405180910390f35b34801561037657600080fd5b50610391600480360381019061038c9190612dbf565b61131e565b60405161039e91906137ee565b60405180910390f35b6103c160048036038101906103bc9190612fb8565b6113d6565b6040516103ce91906137ee565b60405180910390f35b3480156103e357600080fd5b506103ec611418565b6040516103f991906135ac565b60405180910390f35b34801561040e57600080fd5b5061042960048036038101906104249190612eee565b6114aa565b005b6104456004803603810190610440919061300c565b6114c0565b005b34801561045357600080fd5b5061046e60048036038101906104699190612e73565b61155a565b005b61048a6004803603810190610485919061300c565b6115bc565b005b34801561049857600080fd5b506104b360048036038101906104ae919061300c565b611873565b6040516104c091906135ac565b60405180910390f35b6104e360048036038101906104de9190613035565b611986565b005b3480156104f157600080fd5b5061050c60048036038101906105079190612de8565b611b7b565b6040516105199190613591565b60405180910390f35b34801561052e57600080fd5b50610537611c0f565b60405161054491906137ee565b60405180910390f35b60007f80ac58cd000000000000000000000000000000000000000000000000000000007bffffffffffffffffffffffffffffffffffffffffffffffffffffffff1916827bffffffffffffffffffffffffffffffffffffffffffffffffffffffff1916148061061857507f5b5e139f000000000000000000000000000000000000000000000000000000007bffffffffffffffffffffffffffffffffffffffffffffffffffffffff1916827bffffffffffffffffffffffffffffffffffffffffffffffffffffffff1916145b80610628575061062782611c19565b5b9050919050565b60606000805461063e90613ae9565b80601f016020809104026020016040519081016040528092919081815260200182805461066a90613ae9565b80156106b75780601f1061068c576101008083540402835291602001916106b7565b820191906000526020600020905b81548152906001019060200180831161069a57829003601f168201915b5050505050905090565b60006106cc82611c83565b6004600083815260200190815260200160002060009054906101000a900473ffffffffffffffffffffffffffffffffffffffff169050919050565b60006107128261126c565b90508073ffffffffffffffffffffffffffffffffffffffff168373ffffffffffffffffffffffffffffffffffffffff161415610783576040517f08c379a000000000000000000000000000000000000000000000000000000000815260040161077a9061374e565b60405180910390fd5b8073ffffffffffffffffffffffffffffffffffffffff166107a2611cce565b73ffffffffffffffffffffffffffffffffffffffff1614806107d157506107d0816107cb611cce565b611b7b565b5b610810576040517f08c379a0000000000000000000000000000000000000000000000000000000008152600401610807906136ee565b60405180910390fd5b61081a8383611cd6565b505050565b6060600061082d6007611d8f565b9050600061083b6008611d8f565b6108456007611d8f565b61084f91906139ed565b90506000808267ffffffffffffffff811115610894577f4e487b7100000000000000000000000000000000000000000000000000000000600052604160045260246000fd5b6040519080825280602002602001820160405280156108cd57816020015b6108ba612b86565b8152602001906001900390816108b25790505b50905060005b84811015610ac9573073ffffffffffffffffffffffffffffffffffffffff16600d6000600184610903919061390c565b815260200190815260200160002060020160009054906101000a900473ffffffffffffffffffffffffffffffffffffffff1673ffffffffffffffffffffffffffffffffffffffff161415610ab6576000600182610960919061390c565b90506000600d60008381526020019081526020016000209050806040518060a0016040529081600082015481526020016001820160009054906101000a900473ffffffffffffffffffffffffffffffffffffffff1673ffffffffffffffffffffffffffffffffffffffff1673ffffffffffffffffffffffffffffffffffffffff1681526020016002820160009054906101000a900473ffffffffffffffffffffffffffffffffffffffff1673ffffffffffffffffffffffffffffffffffffffff1673ffffffffffffffffffffffffffffffffffffffff168152602001600382015481526020016004820160009054906101000a900460ff161515151581525050848681518110610a99577f4e487b7100000000000000000000000000000000000000000000000000000000600052603260045260246000fd5b6020026020010181905250600185610ab1919061390c565b945050505b8080610ac190613b4c565b9150506108d3565b508094505050505090565b6000600954905090565b60606000610aec6007611d8f565b905060008060005b83811015610b95573373ffffffffffffffffffffffffffffffffffffffff16600d6000600184610b24919061390c565b815260200190815260200160002060020160009054906101000a900473ffffffffffffffffffffffffffffffffffffffff1673ffffffffffffffffffffffffffffffffffffffff161415610b8257600183610b7f919061390c565b92505b8080610b8d90613b4c565b915050610af4565b5060008267ffffffffffffffff811115610bd8577f4e487b7100000000000000000000000000000000000000000000000000000000600052604160045260246000fd5b604051908082528060200260200182016040528015610c1157816020015b610bfe612b86565b815260200190600190039081610bf65790505b50905060005b84811015610e0d573373ffffffffffffffffffffffffffffffffffffffff16600d6000600184610c47919061390c565b815260200190815260200160002060020160009054906101000a900473ffffffffffffffffffffffffffffffffffffffff1673ffffffffffffffffffffffffffffffffffffffff161415610dfa576000600182610ca4919061390c565b90506000600d60008381526020019081526020016000209050806040518060a0016040529081600082015481526020016001820160009054906101000a900473ffffffffffffffffffffffffffffffffffffffff1673ffffffffffffffffffffffffffffffffffffffff1673ffffffffffffffffffffffffffffffffffffffff1681526020016002820160009054906101000a900473ffffffffffffffffffffffffffffffffffffffff1673ffffffffffffffffffffffffffffffffffffffff1673ffffffffffffffffffffffffffffffffffffffff168152602001600382015481526020016004820160009054906101000a900460ff161515151581525050848681518110610ddd577f4e487b7100000000000000000000000000000000000000000000000000000000600052603260045260246000fd5b6020026020010181905250600185610df5919061390c565b945050505b8080610e0590613b4c565b915050610c17565b508094505050505090565b610e29610e23611cce565b82611d9d565b610e68576040517f08c379a0000000000000000000000000000000000000000000000000000000008152600401610e5f906137ae565b60405180910390fd5b610e73838383611e32565b505050565b3373ffffffffffffffffffffffffffffffffffffffff16600c60009054906101000a900473ffffffffffffffffffffffffffffffffffffffff1673ffffffffffffffffffffffffffffffffffffffff1614610f08576040517f08c379a0000000000000000000000000000000000000000000000000000000008152600401610eff9061364e565b60405180910390fd5b80600a8190555050565b610f2d8383836040518060200160405280600081525061155a565b505050565b60606000610f406007611d8f565b905060008060005b83811015610fe9573373ffffffffffffffffffffffffffffffffffffffff16600d6000600184610f78919061390c565b815260200190815260200160002060010160009054906101000a900473ffffffffffffffffffffffffffffffffffffffff1673ffffffffffffffffffffffffffffffffffffffff161415610fd657600183610fd3919061390c565b92505b8080610fe190613b4c565b915050610f48565b5060008267ffffffffffffffff81111561102c577f4e487b7100000000000000000000000000000000000000000000000000000000600052604160045260246000fd5b60405190808252806020026020018201604052801561106557816020015b611052612b86565b81526020019060019003908161104a5790505b50905060005b84811015611261573373ffffffffffffffffffffffffffffffffffffffff16600d600060018461109b919061390c565b815260200190815260200160002060010160009054906101000a900473ffffffffffffffffffffffffffffffffffffffff1673ffffffffffffffffffffffffffffffffffffffff16141561124e5760006001826110f8919061390c565b90506000600d60008381526020019081526020016000209050806040518060a0016040529081600082015481526020016001820160009054906101000a900473ffffffffffffffffffffffffffffffffffffffff1673ffffffffffffffffffffffffffffffffffffffff1673ffffffffffffffffffffffffffffffffffffffff1681526020016002820160009054906101000a900473ffffffffffffffffffffffffffffffffffffffff1673ffffffffffffffffffffffffffffffffffffffff1673ffffffffffffffffffffffffffffffffffffffff168152602001600382015481526020016004820160009054906101000a900460ff161515151581525050848681518110611231577f4e487b7100000000000000000000000000000000000000000000000000000000600052603260045260246000fd5b6020026020010181905250600185611249919061390c565b945050505b808061125990613b4c565b91505061106b565b508094505050505090565b6000806002600084815260200190815260200160002060009054906101000a900473ffffffffffffffffffffffffffffffffffffffff169050600073ffffffffffffffffffffffffffffffffffffffff168173ffffffffffffffffffffffffffffffffffffffff161415611315576040517f08c379a000000000000000000000000000000000000000000000000000000000815260040161130c9061372e565b60405180910390fd5b80915050919050565b60008073ffffffffffffffffffffffffffffffffffffffff168273ffffffffffffffffffffffffffffffffffffffff16141561138f576040517f08c379a0000000000000000000000000000000000000000000000000000000008152600401611386906136ae565b60405180910390fd5b600360008373ffffffffffffffffffffffffffffffffffffffff1673ffffffffffffffffffffffffffffffffffffffff168152602001908152602001600020549050919050565b60006113e26007612099565b60006113ee6007611d8f565b90506113fa33826120af565b6114048185612289565b61140e81846122fd565b8091505092915050565b60606001805461142790613ae9565b80601f016020809104026020016040519081016040528092919081815260200182805461145390613ae9565b80156114a05780601f10611475576101008083540402835291602001916114a0565b820191906000526020600020905b81548152906001019060200180831161148357829003601f168201915b5050505050905090565b6114bc6114b5611cce565b83836124bd565b5050565b3373ffffffffffffffffffffffffffffffffffffffff16600c60009054906101000a900473ffffffffffffffffffffffffffffffffffffffff1673ffffffffffffffffffffffffffffffffffffffff1614611550576040517f08c379a00000000000000000000000000000000000000000000000000000000081526004016115479061364e565b60405180910390fd5b8060098190555050565b61156b611565611cce565b83611d9d565b6115aa576040517f08c379a00000000000000000000000000000000000000000000000000000000081526004016115a1906137ae565b60405180910390fd5b6115b68484848461262a565b50505050565b6000600d60008381526020019081526020016000206003015490506000600d600084815260200190815260200160002060010160009054906101000a900473ffffffffffffffffffffffffffffffffffffffff169050813414611654576040517f08c379a000000000000000000000000000000000000000000000000000000000815260040161164b906137ce565b60405180910390fd5b33600d600085815260200190815260200160002060020160006101000a81548173ffffffffffffffffffffffffffffffffffffffff021916908373ffffffffffffffffffffffffffffffffffffffff1602179055506001600d600085815260200190815260200160002060040160006101000a81548160ff0219169083151502179055506000600d600085815260200190815260200160002060010160006101000a81548173ffffffffffffffffffffffffffffffffffffffff021916908373ffffffffffffffffffffffffffffffffffffffff1602179055506117386008612099565b611743303385611e32565b600c60009054906101000a900473ffffffffffffffffffffffffffffffffffffffff1673ffffffffffffffffffffffffffffffffffffffff166108fc6009549081150290604051600060405180830381858888f193505050501580156117ad573d6000803e3d6000fd5b50600c60009054906101000a900473ffffffffffffffffffffffffffffffffffffffff1673ffffffffffffffffffffffffffffffffffffffff166108fc6117f334612686565b9081150290604051600060405180830381858888f1935050505015801561181e573d6000803e3d6000fd5b508073ffffffffffffffffffffffffffffffffffffffff166108fc611842346126aa565b9081150290604051600060405180830381858888f1935050505015801561186d573d6000803e3d6000fd5b50505050565b606061187e82611c83565b600060066000848152602001908152602001600020805461189e90613ae9565b80601f01602080910402602001604051908101604052809291908181526020018280546118ca90613ae9565b80156119175780601f106118ec57610100808354040283529160200191611917565b820191906000526020600020905b8154815290600101906020018083116118fa57829003601f168201915b5050505050905060006119286126ce565b905060008151141561193e578192505050611981565b60008251111561197357808260405160200161195b92919061349f565b60405160208183030381529060405292505050611981565b61197c846126e5565b925050505b919050565b3373ffffffffffffffffffffffffffffffffffffffff16600d600084815260200190815260200160002060020160009054906101000a900473ffffffffffffffffffffffffffffffffffffffff1673ffffffffffffffffffffffffffffffffffffffff1614611a2a576040517f08c379a0000000000000000000000000000000000000000000000000000000008152600401611a219061378e565b60405180910390fd5b6009543414611a6e576040517f08c379a0000000000000000000000000000000000000000000000000000000008152600401611a659061376e565b60405180910390fd5b6000600d600084815260200190815260200160002060040160006101000a81548160ff02191690831515021790555080600d60008481526020019081526020016000206003018190555033600d600084815260200190815260200160002060010160006101000a81548173ffffffffffffffffffffffffffffffffffffffff021916908373ffffffffffffffffffffffffffffffffffffffff16021790555030600d600084815260200190815260200160002060020160006101000a81548173ffffffffffffffffffffffffffffffffffffffff021916908373ffffffffffffffffffffffffffffffffffffffff160217905550611b6c600861274d565b611b77333084611e32565b5050565b6000600560008473ffffffffffffffffffffffffffffffffffffffff1673ffffffffffffffffffffffffffffffffffffffff16815260200190815260200160002060008373ffffffffffffffffffffffffffffffffffffffff1673ffffffffffffffffffffffffffffffffffffffff16815260200190815260200160002060009054906101000a900460ff16905092915050565b6000600a54905090565b60007f01ffc9a7000000000000000000000000000000000000000000000000000000007bffffffffffffffffffffffffffffffffffffffffffffffffffffffff1916827bffffffffffffffffffffffffffffffffffffffffffffffffffffffff1916149050919050565b611c8c816127a9565b611ccb576040517f08c379a0000000000000000000000000000000000000000000000000000000008152600401611cc29061372e565b60405180910390fd5b50565b600033905090565b816004600083815260200190815260200160002060006101000a81548173ffffffffffffffffffffffffffffffffffffffff021916908373ffffffffffffffffffffffffffffffffffffffff160217905550808273ffffffffffffffffffffffffffffffffffffffff16611d498361126c565b73ffffffffffffffffffffffffffffffffffffffff167f8c5be1e5ebec7d5bd14f71427d1e84f3dd0314c0f7b2291e5b200ac8c7c3b92560405160405180910390a45050565b600081600001549050919050565b600080611da98361126c565b90508073ffffffffffffffffffffffffffffffffffffffff168473ffffffffffffffffffffffffffffffffffffffff161480611deb5750611dea8185611b7b565b5b80611e2957508373ffffffffffffffffffffffffffffffffffffffff16611e11846106c1565b73ffffffffffffffffffffffffffffffffffffffff16145b91505092915050565b8273ffffffffffffffffffffffffffffffffffffffff16611e528261126c565b73ffffffffffffffffffffffffffffffffffffffff1614611ea8576040517f08c379a0000000000000000000000000000000000000000000000000000000008152600401611e9f9061360e565b60405180910390fd5b600073ffffffffffffffffffffffffffffffffffffffff168273ffffffffffffffffffffffffffffffffffffffff161415611f18576040517f08c379a0000000000000000000000000000000000000000000000000000000008152600401611f0f9061366e565b60405180910390fd5b611f23838383612815565b611f2e600082611cd6565b6001600360008573ffffffffffffffffffffffffffffffffffffffff1673ffffffffffffffffffffffffffffffffffffffff1681526020019081526020016000206000828254611f7e91906139ed565b925050819055506001600360008473ffffffffffffffffffffffffffffffffffffffff1673ffffffffffffffffffffffffffffffffffffffff1681526020019081526020016000206000828254611fd5919061390c565b92505081905550816002600083815260200190815260200160002060006101000a81548173ffffffffffffffffffffffffffffffffffffffff021916908373ffffffffffffffffffffffffffffffffffffffff160217905550808273ffffffffffffffffffffffffffffffffffffffff168473ffffffffffffffffffffffffffffffffffffffff167fddf252ad1be2c89b69c2b068fc378daa952ba7f163c4a11628f55a4df523b3ef60405160405180910390a461209483838361281a565b505050565b6001816000016000828254019250508190555050565b600073ffffffffffffffffffffffffffffffffffffffff168273ffffffffffffffffffffffffffffffffffffffff16141561211f576040517f08c379a00000000000000000000000000000000000000000000000000000000081526004016121169061370e565b60405180910390fd5b612128816127a9565b15612168576040517f08c379a000000000000000000000000000000000000000000000000000000000815260040161215f9061362e565b60405180910390fd5b61217460008383612815565b6001600360008473ffffffffffffffffffffffffffffffffffffffff1673ffffffffffffffffffffffffffffffffffffffff16815260200190815260200160002060008282546121c4919061390c565b92505081905550816002600083815260200190815260200160002060006101000a81548173ffffffffffffffffffffffffffffffffffffffff021916908373ffffffffffffffffffffffffffffffffffffffff160217905550808273ffffffffffffffffffffffffffffffffffffffff16600073ffffffffffffffffffffffffffffffffffffffff167fddf252ad1be2c89b69c2b068fc378daa952ba7f163c4a11628f55a4df523b3ef60405160405180910390a46122856000838361281a565b5050565b612292826127a9565b6122d1576040517f08c379a00000000000000000000000000000000000000000000000000000000081526004016122c8906136ce565b60405180910390fd5b806006600084815260200190815260200160002090805190602001906122f8929190612be3565b505050565b6009543414612341576040517f08c379a00000000000000000000000000000000000000000000000000000000081526004016123389061376e565b60405180910390fd5b6040518060a001604052808381526020013373ffffffffffffffffffffffffffffffffffffffff1681526020013073ffffffffffffffffffffffffffffffffffffffff16815260200182815260200160001515815250600d60008481526020019081526020016000206000820151816000015560208201518160010160006101000a81548173ffffffffffffffffffffffffffffffffffffffff021916908373ffffffffffffffffffffffffffffffffffffffff16021790555060408201518160020160006101000a81548173ffffffffffffffffffffffffffffffffffffffff021916908373ffffffffffffffffffffffffffffffffffffffff1602179055506060820151816003015560808201518160040160006101000a81548160ff02191690831515021790555090505061247a333084611e32565b817fb640004f1d14576d0c209e240cad0410e0d8c0c33a09375861fbadae2588a98d33308460006040516124b194939291906134de565b60405180910390a25050565b8173ffffffffffffffffffffffffffffffffffffffff168373ffffffffffffffffffffffffffffffffffffffff16141561252c576040517f08c379a00000000000000000000000000000000000000000000000000000000081526004016125239061368e565b60405180910390fd5b80600560008573ffffffffffffffffffffffffffffffffffffffff1673ffffffffffffffffffffffffffffffffffffffff16815260200190815260200160002060008473ffffffffffffffffffffffffffffffffffffffff1673ffffffffffffffffffffffffffffffffffffffff16815260200190815260200160002060006101000a81548160ff0219169083151502179055508173ffffffffffffffffffffffffffffffffffffffff168373ffffffffffffffffffffffffffffffffffffffff167f17307eab39ab6107e8899845ad3d59bd9653f200f220920489ca2b5937696c318360405161261d9190613591565b60405180910390a3505050565b612635848484611e32565b6126418484848461281f565b612680576040517f08c379a0000000000000000000000000000000000000000000000000000000008152600401612677906135ee565b60405180910390fd5b50505050565b6000600a546103e8836126999190613962565b6126a39190613993565b9050919050565b6000600b546103e8836126bd9190613962565b6126c79190613993565b9050919050565b606060405180602001604052806000815250905090565b60606126f082611c83565b60006126fa6126ce565b9050600081511161271a5760405180602001604052806000815250612745565b80612724846129b6565b60405160200161273592919061349f565b6040516020818303038152906040525b915050919050565b60008160000154905060008111612799576040517f08c379a0000000000000000000000000000000000000000000000000000000008152600401612790906135ce565b60405180910390fd5b6001810382600001819055505050565b60008073ffffffffffffffffffffffffffffffffffffffff166002600084815260200190815260200160002060009054906101000a900473ffffffffffffffffffffffffffffffffffffffff1673ffffffffffffffffffffffffffffffffffffffff1614159050919050565b505050565b505050565b60006128408473ffffffffffffffffffffffffffffffffffffffff16612b63565b156129a9578373ffffffffffffffffffffffffffffffffffffffff1663150b7a02612869611cce565b8786866040518563ffffffff1660e01b815260040161288b9493929190613523565b602060405180830381600087803b1580156128a557600080fd5b505af19250505080156128d657506040513d601f19601f820116820180604052508101906128d39190612f8f565b60015b612959573d8060008114612906576040519150601f19603f3d011682016040523d82523d6000602084013e61290b565b606091505b50600081511415612951576040517f08c379a0000000000000000000000000000000000000000000000000000000008152600401612948906135ee565b60405180910390fd5b805181602001fd5b63150b7a0260e01b7bffffffffffffffffffffffffffffffffffffffffffffffffffffffff1916817bffffffffffffffffffffffffffffffffffffffffffffffffffffffff1916149150506129ae565b600190505b949350505050565b606060008214156129fe576040518060400160405280600181526020017f30000000000000000000000000000000000000000000000000000000000000008152509050612b5e565b600082905060005b60008214612a30578080612a1990613b4c565b915050600a82612a299190613962565b9150612a06565b60008167ffffffffffffffff811115612a72577f4e487b7100000000000000000000000000000000000000000000000000000000600052604160045260246000fd5b6040519080825280601f01601f191660200182016040528015612aa45781602001600182028036833780820191505090505b5090505b60008514612b5757600182612abd91906139ed565b9150600a85612acc9190613b95565b6030612ad8919061390c565b60f81b818381518110612b14577f4e487b7100000000000000000000000000000000000000000000000000000000600052603260045260246000fd5b60200101907effffffffffffffffffffffffffffffffffffffffffffffffffffffffffffff1916908160001a905350600a85612b509190613962565b9450612aa8565b8093505050505b919050565b6000808273ffffffffffffffffffffffffffffffffffffffff163b119050919050565b6040518060a0016040528060008152602001600073ffffffffffffffffffffffffffffffffffffffff168152602001600073ffffffffffffffffffffffffffffffffffffffff168152602001600081526020016000151581525090565b828054612bef90613ae9565b90600052602060002090601f016020900481019282612c115760008555612c58565b82601f10612c2a57805160ff1916838001178555612c58565b82800160010185558215612c58579182015b82811115612c57578251825591602001919060010190612c3c565b5b509050612c659190612c69565b5090565b5b80821115612c82576000816000905550600101612c6a565b5090565b6000612c99612c948461382e565b613809565b905082815260208101848484011115612cb157600080fd5b612cbc848285613aa7565b509392505050565b6000612cd7612cd28461385f565b613809565b905082815260208101848484011115612cef57600080fd5b612cfa848285613aa7565b509392505050565b600081359050612d1181614114565b92915050565b600081359050612d268161412b565b92915050565b600081359050612d3b81614142565b92915050565b600081519050612d5081614142565b92915050565b600082601f830112612d6757600080fd5b8135612d77848260208601612c86565b91505092915050565b600082601f830112612d9157600080fd5b8135612da1848260208601612cc4565b91505092915050565b600081359050612db981614159565b92915050565b600060208284031215612dd157600080fd5b6000612ddf84828501612d02565b91505092915050565b60008060408385031215612dfb57600080fd5b6000612e0985828601612d02565b9250506020612e1a85828601612d02565b9150509250929050565b600080600060608486031215612e3957600080fd5b6000612e4786828701612d02565b9350506020612e5886828701612d02565b9250506040612e6986828701612daa565b9150509250925092565b60008060008060808587031215612e8957600080fd5b6000612e9787828801612d02565b9450506020612ea887828801612d02565b9350506040612eb987828801612daa565b925050606085013567ffffffffffffffff811115612ed657600080fd5b612ee287828801612d56565b91505092959194509250565b60008060408385031215612f0157600080fd5b6000612f0f85828601612d02565b9250506020612f2085828601612d17565b9150509250929050565b60008060408385031215612f3d57600080fd5b6000612f4b85828601612d02565b9250506020612f5c85828601612daa565b9150509250929050565b600060208284031215612f7857600080fd5b6000612f8684828501612d2c565b91505092915050565b600060208284031215612fa157600080fd5b6000612faf84828501612d41565b91505092915050565b60008060408385031215612fcb57600080fd5b600083013567ffffffffffffffff811115612fe557600080fd5b612ff185828601612d80565b925050602061300285828601612daa565b9150509250929050565b60006020828403121561301e57600080fd5b600061302c84828501612daa565b91505092915050565b6000806040838503121561304857600080fd5b600061305685828601612daa565b925050602061306785828601612daa565b9150509250929050565b600061307d8383613419565b60a08301905092915050565b61309281613a33565b82525050565b6130a181613a21565b82525050565b60006130b2826138a0565b6130bc81856138ce565b93506130c783613890565b8060005b838110156130f85781516130df8882613071565b97506130ea836138c1565b9250506001810190506130cb565b5085935050505092915050565b61310e81613a45565b82525050565b61311d81613a45565b82525050565b600061312e826138ab565b61313881856138df565b9350613148818560208601613ab6565b61315181613c82565b840191505092915050565b6000613167826138b6565b61317181856138f0565b9350613181818560208601613ab6565b61318a81613c82565b840191505092915050565b60006131a0826138b6565b6131aa8185613901565b93506131ba818560208601613ab6565b80840191505092915050565b60006131d3601b836138f0565b91506131de82613c93565b602082019050919050565b60006131f66032836138f0565b915061320182613cbc565b604082019050919050565b60006132196025836138f0565b915061322482613d0b565b604082019050919050565b600061323c601c836138f0565b915061324782613d5a565b602082019050919050565b600061325f6033836138f0565b915061326a82613d83565b604082019050919050565b60006132826024836138f0565b915061328d82613dd2565b604082019050919050565b60006132a56019836138f0565b91506132b082613e21565b602082019050919050565b60006132c86029836138f0565b91506132d382613e4a565b604082019050919050565b60006132eb602e836138f0565b91506132f682613e99565b604082019050919050565b600061330e603e836138f0565b915061331982613ee8565b604082019050919050565b60006133316020836138f0565b915061333c82613f37565b602082019050919050565b60006133546018836138f0565b915061335f82613f60565b602082019050919050565b60006133776021836138f0565b915061338282613f89565b604082019050919050565b600061339a6024836138f0565b91506133a582613fd8565b604082019050919050565b60006133bd602a836138f0565b91506133c882614027565b604082019050919050565b60006133e0602e836138f0565b91506133eb82614076565b604082019050919050565b60006134036037836138f0565b915061340e826140c5565b604082019050919050565b60a08201600082015161342f6000850182613481565b5060208201516134426020850182613089565b5060408201516134556040850182613089565b5060608201516134686060850182613481565b50608082015161347b6080850182613105565b50505050565b61348a81613a9d565b82525050565b61349981613a9d565b82525050565b60006134ab8285613195565b91506134b78284613195565b91508190509392505050565b60006020820190506134d86000830184613098565b92915050565b60006080820190506134f36000830187613098565b6135006020830186613098565b61350d6040830185613490565b61351a6060830184613114565b95945050505050565b60006080820190506135386000830187613098565b6135456020830186613098565b6135526040830185613490565b81810360608301526135648184613123565b905095945050505050565b6000602082019050818103600083015261358981846130a7565b905092915050565b60006020820190506135a66000830184613114565b92915050565b600060208201905081810360008301526135c6818461315c565b905092915050565b600060208201905081810360008301526135e7816131c6565b9050919050565b60006020820190508181036000830152613607816131e9565b9050919050565b600060208201905081810360008301526136278161320c565b9050919050565b600060208201905081810360008301526136478161322f565b9050919050565b6000602082019050818103600083015261366781613252565b9050919050565b6000602082019050818103600083015261368781613275565b9050919050565b600060208201905081810360008301526136a781613298565b9050919050565b600060208201905081810360008301526136c7816132bb565b9050919050565b600060208201905081810360008301526136e7816132de565b9050919050565b6000602082019050818103600083015261370781613301565b9050919050565b6000602082019050818103600083015261372781613324565b9050919050565b6000602082019050818103600083015261374781613347565b9050919050565b600060208201905081810360008301526137678161336a565b9050919050565b600060208201905081810360008301526137878161338d565b9050919050565b600060208201905081810360008301526137a7816133b0565b9050919050565b600060208201905081810360008301526137c7816133d3565b9050919050565b600060208201905081810360008301526137e7816133f6565b9050919050565b60006020820190506138036000830184613490565b92915050565b6000613813613824565b905061381f8282613b1b565b919050565b6000604051905090565b600067ffffffffffffffff82111561384957613848613c53565b5b61385282613c82565b9050602081019050919050565b600067ffffffffffffffff82111561387a57613879613c53565b5b61388382613c82565b9050602081019050919050565b6000819050602082019050919050565b600081519050919050565b600081519050919050565b600081519050919050565b6000602082019050919050565b600082825260208201905092915050565b600082825260208201905092915050565b600082825260208201905092915050565b600081905092915050565b600061391782613a9d565b915061392283613a9d565b9250827fffffffffffffffffffffffffffffffffffffffffffffffffffffffffffffffff0382111561395757613956613bc6565b5b828201905092915050565b600061396d82613a9d565b915061397883613a9d565b92508261398857613987613bf5565b5b828204905092915050565b600061399e82613a9d565b91506139a983613a9d565b9250817fffffffffffffffffffffffffffffffffffffffffffffffffffffffffffffffff04831182151516156139e2576139e1613bc6565b5b828202905092915050565b60006139f882613a9d565b9150613a0383613a9d565b925082821015613a1657613a15613bc6565b5b828203905092915050565b6000613a2c82613a7d565b9050919050565b6000613a3e82613a7d565b9050919050565b60008115159050919050565b60007fffffffff0000000000000000000000000000000000000000000000000000000082169050919050565b600073ffffffffffffffffffffffffffffffffffffffff82169050919050565b6000819050919050565b82818337600083830152505050565b60005b83811015613ad4578082015181840152602081019050613ab9565b83811115613ae3576000848401525b50505050565b60006002820490506001821680613b0157607f821691505b60208210811415613b1557613b14613c24565b5b50919050565b613b2482613c82565b810181811067ffffffffffffffff82111715613b4357613b42613c53565b5b80604052505050565b6000613b5782613a9d565b91507fffffffffffffffffffffffffffffffffffffffffffffffffffffffffffffffff821415613b8a57613b89613bc6565b5b600182019050919050565b6000613ba082613a9d565b9150613bab83613a9d565b925082613bbb57613bba613bf5565b5b828206905092915050565b7f4e487b7100000000000000000000000000000000000000000000000000000000600052601160045260246000fd5b7f4e487b7100000000000000000000000000000000000000000000000000000000600052601260045260246000fd5b7f4e487b7100000000000000000000000000000000000000000000000000000000600052602260045260246000fd5b7f4e487b7100000000000000000000000000000000000000000000000000000000600052604160045260246000fd5b6000601f19601f8301169050919050565b7f436f756e7465723a2064656372656d656e74206f766572666c6f770000000000600082015250565b7f4552433732313a207472616e7366657220746f206e6f6e20455243373231526560008201527f63656976657220696d706c656d656e7465720000000000000000000000000000602082015250565b7f4552433732313a207472616e736665722066726f6d20696e636f72726563742060008201527f6f776e6572000000000000000000000000000000000000000000000000000000602082015250565b7f4552433732313a20746f6b656e20616c7265616479206d696e74656400000000600082015250565b7f4f6e6c79206d61726b6574706c616365206f776e65722063616e20757064617460008201527f6520746865206c697374696e6720707269636500000000000000000000000000602082015250565b7f4552433732313a207472616e7366657220746f20746865207a65726f2061646460008201527f7265737300000000000000000000000000000000000000000000000000000000602082015250565b7f4552433732313a20617070726f766520746f2063616c6c657200000000000000600082015250565b7f4552433732313a2061646472657373207a65726f206973206e6f74206120766160008201527f6c6964206f776e65720000000000000000000000000000000000000000000000602082015250565b7f45524337323155524953746f726167653a2055524920736574206f66206e6f6e60008201527f6578697374656e7420746f6b656e000000000000000000000000000000000000602082015250565b7f4552433732313a20617070726f76652063616c6c6572206973206e6f7420746f60008201527f6b656e206f776e6572206e6f7220617070726f76656420666f7220616c6c0000602082015250565b7f4552433732313a206d696e7420746f20746865207a65726f2061646472657373600082015250565b7f4552433732313a20696e76616c696420746f6b656e2049440000000000000000600082015250565b7f4552433732313a20617070726f76616c20746f2063757272656e74206f776e6560008201527f7200000000000000000000000000000000000000000000000000000000000000602082015250565b7f5072696365206d75737420626520657175616c20746f206c697374696e67207060008201527f7269636500000000000000000000000000000000000000000000000000000000602082015250565b7f4f6e6c79204974656d204f776e65722063616e20706572666f726d207468697360008201527f206f7065726174696f6e00000000000000000000000000000000000000000000602082015250565b7f4552433732313a2063616c6c6572206973206e6f7420746f6b656e206f776e6560008201527f72206e6f7220617070726f766564000000000000000000000000000000000000602082015250565b7f506c65617365207375626d6974207468652061736b696e67207072696365207460008201527f6f20636f6d706c65746520746865207075726368617365000000000000000000602082015250565b61411d81613a21565b811461412857600080fd5b50565b61413481613a45565b811461413f57600080fd5b50565b61414b81613a51565b811461415657600080fd5b50565b61416281613a9d565b811461416d57600080fd5b5056fea2646970667358221220fcd3464c0f6d6d2d814cbdb5148018a5a52a8112dbe7a0c46263b6b9f5253de764736f6c63430008040033",
  "linkReferences": {},
  "deployedLinkReferences": {}
}